{
  "address": "0x3515fE235cc7F1278ea948c2D97D5209094B5175",
  "abi": [
    {
      "inputs": [
        {
          "internalType": "address",
          "name": "_buyer",
          "type": "address"
        },
        {
          "internalType": "address",
          "name": "_seller",
          "type": "address"
        },
        {
          "internalType": "address",
          "name": "_arbiter",
          "type": "address"
        },
        {
          "internalType": "address",
          "name": "_platformWallet",
          "type": "address"
        },
        {
          "internalType": "uint256",
          "name": "_platformFeePercent",
          "type": "uint256"
        },
        {
          "internalType": "string",
          "name": "_trackingNumber",
          "type": "string"
        }
      ],
      "stateMutability": "payable",
      "type": "constructor"
    },
    {
      "anonymous": false,
      "inputs": [
        {
          "indexed": false,
          "internalType": "address",
          "name": "requester",
          "type": "address"
        }
      ],
      "name": "CancellationRequested",
      "type": "event"
    },
    {
      "anonymous": false,
      "inputs": [],
      "name": "DisputeOpened",
      "type": "event"
    },
    {
      "anonymous": false,
      "inputs": [],
      "name": "DisputeResolved",
      "type": "event"
    },
    {
      "anonymous": false,
      "inputs": [],
      "name": "EscrowCancelled",
      "type": "event"
    },
    {
      "anonymous": false,
      "inputs": [
        {
          "indexed": false,
          "internalType": "address",
          "name": "buyer",
          "type": "address"
        },
        {
          "indexed": false,
          "internalType": "uint256",
          "name": "amount",
          "type": "uint256"
        }
      ],
      "name": "FundsRefunded",
      "type": "event"
    },
    {
      "anonymous": false,
      "inputs": [
        {
          "indexed": false,
          "internalType": "address",
          "name": "seller",
          "type": "address"
        },
        {
          "indexed": false,
          "internalType": "uint256",
          "name": "amount",
          "type": "uint256"
        }
      ],
      "name": "FundsReleased",
      "type": "event"
    },
    {
      "inputs": [],
      "name": "amount",
      "outputs": [
        {
          "internalType": "uint256",
          "name": "",
          "type": "uint256"
        }
      ],
      "stateMutability": "view",
      "type": "function"
    },
    {
      "inputs": [],
      "name": "arbiter",
      "outputs": [
        {
          "internalType": "address",
          "name": "",
          "type": "address"
        }
      ],
      "stateMutability": "view",
      "type": "function"
    },
    {
      "inputs": [],
      "name": "buyer",
      "outputs": [
        {
          "internalType": "address",
          "name": "",
          "type": "address"
        }
      ],
      "stateMutability": "view",
      "type": "function"
    },
    {
      "inputs": [],
      "name": "cancelEscrow",
      "outputs": [],
      "stateMutability": "nonpayable",
      "type": "function"
    },
    {
      "inputs": [],
      "name": "cancellationRequester",
      "outputs": [
        {
          "internalType": "address",
          "name": "",
          "type": "address"
        }
      ],
      "stateMutability": "view",
      "type": "function"
    },
    {
      "inputs": [],
      "name": "confirmCancellation",
      "outputs": [],
      "stateMutability": "nonpayable",
      "type": "function"
    },
    {
      "inputs": [],
      "name": "isCancellationRequested",
      "outputs": [
        {
          "internalType": "bool",
          "name": "",
          "type": "bool"
        }
      ],
      "stateMutability": "view",
      "type": "function"
    },
    {
      "inputs": [],
      "name": "isDisputed",
      "outputs": [
        {
          "internalType": "bool",
          "name": "",
          "type": "bool"
        }
      ],
      "stateMutability": "view",
      "type": "function"
    },
    {
      "inputs": [],
      "name": "isFunded",
      "outputs": [
        {
          "internalType": "bool",
          "name": "",
          "type": "bool"
        }
      ],
      "stateMutability": "view",
      "type": "function"
    },
    {
      "inputs": [],
      "name": "isReleased",
      "outputs": [
        {
          "internalType": "bool",
          "name": "",
          "type": "bool"
        }
      ],
      "stateMutability": "view",
      "type": "function"
    },
    {
      "inputs": [],
      "name": "openDispute",
      "outputs": [],
      "stateMutability": "nonpayable",
      "type": "function"
    },
    {
      "inputs": [],
      "name": "platformFeePercent",
      "outputs": [
        {
          "internalType": "uint256",
          "name": "",
          "type": "uint256"
        }
      ],
      "stateMutability": "view",
      "type": "function"
    },
    {
      "inputs": [],
      "name": "platformWallet",
      "outputs": [
        {
          "internalType": "address",
          "name": "",
          "type": "address"
        }
      ],
      "stateMutability": "view",
      "type": "function"
    },
    {
      "inputs": [],
      "name": "refundFunds",
      "outputs": [],
      "stateMutability": "nonpayable",
      "type": "function"
    },
    {
      "inputs": [],
      "name": "releaseFunds",
      "outputs": [],
      "stateMutability": "nonpayable",
      "type": "function"
    },
    {
      "inputs": [
        {
          "internalType": "bool",
          "name": "releaseToSeller",
          "type": "bool"
        }
      ],
      "name": "resolveDispute",
      "outputs": [],
      "stateMutability": "nonpayable",
      "type": "function"
    },
    {
      "inputs": [],
      "name": "seller",
      "outputs": [
        {
          "internalType": "address",
          "name": "",
          "type": "address"
        }
      ],
      "stateMutability": "view",
      "type": "function"
    },
    {
      "inputs": [],
      "name": "trackingNumber",
      "outputs": [
        {
          "internalType": "string",
          "name": "",
          "type": "string"
        }
      ],
      "stateMutability": "view",
      "type": "function"
    },
    {
      "stateMutability": "payable",
      "type": "receive"
    }
  ],
  "transactionHash": "0x3292b7586fa7127cdc3904e0c6f23ef0cc7684ad6bd81daf6a68c0960c99682c",
  "args": [
    "0x70997970C51812dc3A010C7d01b50e0d17dc79C8",
    "0x3C44CdDdB6a900fa2b585dd299e03d12FA4293BC",
    "0x90F79bf6EB2c4f870365E785982E1f101E93b906",
    "0x90F79bf6EB2c4f870365E785982E1f101E93b906",
    1,
    "123456789"
  ],
  "numDeployments": 1,
  "solcInputHash": "73d07cbdc31968073f611e64a4f1aee2",
  "bytecode": "0x60806040526040516200126138038062001261833981016040819052620000269162000129565b600034116200007b5760405162461bcd60e51b815260206004820181905260248201527f416d6f756e74206d7573742062652067726561746572207468616e207a65726f604482015260640160405180910390fd5b600080546001600160a01b038089166001600160a01b031992831617909255600180548884169083161781556002805488851690841617905560068054938716939092169290921790556007839055346003556004805460ff191690911790556005620000e98282620002e0565b50505050505050620003ac565b80516001600160a01b03811681146200010e57600080fd5b919050565b634e487b7160e01b600052604160045260246000fd5b60008060008060008060c087890312156200014357600080fd5b6200014e87620000f6565b955060206200015f818901620000f6565b95506200016f60408901620000f6565b94506200017f60608901620000f6565b608089015160a08a015191955093506001600160401b0380821115620001a457600080fd5b818a0191508a601f830112620001b957600080fd5b815181811115620001ce57620001ce62000113565b604051601f8201601f19908116603f01168101908382118183101715620001f957620001f962000113565b816040528281528d868487010111156200021257600080fd5b600093505b8284101562000236578484018601518185018701529285019262000217565b60008684830101528096505050505050509295509295509295565b600181811c908216806200026657607f821691505b6020821081036200028757634e487b7160e01b600052602260045260246000fd5b50919050565b601f821115620002db57600081815260208120601f850160051c81016020861015620002b65750805b601f850160051c820191505b81811015620002d757828155600101620002c2565b5050505b505050565b81516001600160401b03811115620002fc57620002fc62000113565b62000314816200030d845462000251565b846200028d565b602080601f8311600181146200034c5760008415620003335750858301515b600019600386901b1c1916600185901b178555620002d7565b600085815260208120601f198616915b828110156200037d578886015182559484019460019091019084016200035c565b50858210156200039c5787850151600019600388901b60f8161c191681555b5050505050600190811b01905550565b610ea580620003bc6000396000f3fe60806040526004361061010d5760003560e01c806389e1e82a11610095578063d45b000711610064578063d45b000714610382578063f21a980614610397578063fa2a8997146103ac578063fa2af9da146103cb578063fe25e00a146103eb57600080fd5b806389e1e82a146103005780638c639a85146103205780639bf7b2ba14610344578063aa8c217c1461036c57600080fd5b80634fd6137c116100dc5780634fd6137c1461027a578063526ff16f1461028f57806369d89575146102b15780637150d8ae146102c65780637c654303146102e657600080fd5b80630335729e146101d557806308551a531461020a5780630f1a6cca1461024257806349569b821461026357600080fd5b366101d05760045460ff161561016a5760405162461bcd60e51b815260206004820152601860248201527f457363726f7720697320616c72656164792066756e646564000000000000000060448201526064015b60405180910390fd5b600034116101ba5760405162461bcd60e51b815260206004820181905260248201527f416d6f756e74206d7573742062652067726561746572207468616e207a65726f6044820152606401610161565b346003556004805460ff19166001908117909155005b600080fd5b3480156101e157600080fd5b506004546101f59062010000900460ff1681565b60405190151581526020015b60405180910390f35b34801561021657600080fd5b5060015461022a906001600160a01b031681565b6040516001600160a01b039091168152602001610201565b34801561024e57600080fd5b506004546101f5906301000000900460ff1681565b34801561026f57600080fd5b5061027861040b565b005b34801561028657600080fd5b50610278610590565b34801561029b57600080fd5b506102a4610634565b6040516102019190610c9c565b3480156102bd57600080fd5b506102786106c2565b3480156102d257600080fd5b5060005461022a906001600160a01b031681565b3480156102f257600080fd5b506004546101f59060ff1681565b34801561030c57600080fd5b5061027861031b366004610cea565b61090b565b34801561032c57600080fd5b5061033660075481565b604051908152602001610201565b34801561035057600080fd5b5060045461022a9064010000000090046001600160a01b031681565b34801561037857600080fd5b5061033660035481565b34801561038e57600080fd5b506102786109d8565b3480156103a357600080fd5b50610278610acb565b3480156103b857600080fd5b506004546101f590610100900460ff1681565b3480156103d757600080fd5b5060065461022a906001600160a01b031681565b3480156103f757600080fd5b5060025461022a906001600160a01b031681565b60045460ff166104545760405162461bcd60e51b8152602060048201526014602482015273115cd8dc9bddc81a5cc81b9bdd08199d5b99195960621b6044820152606401610161565b600454610100900460ff16156104a55760405162461bcd60e51b8152602060048201526016602482015275119d5b991cc8185b1c9958591e481c995b19585cd95960521b6044820152606401610161565b6002546001600160a01b031633146104cf5760405162461bcd60e51b815260040161016190610d13565b60045462010000900460ff16156104f85760405162461bcd60e51b815260040161016190610d56565b6004805461ff001916610100179055600080546003546040516001600160a01b039092169281156108fc029290818181858888f19350505050158015610542573d6000803e3d6000fd5b50600054600354604080516001600160a01b03909316835260208301919091527fbada1a1bf129e41a8af5abe00997bd8a8cb1770cb0cf68314eb4b1d6c427139791015b60405180910390a1565b6000546001600160a01b03163314806105b357506001546001600160a01b031633145b6105cf5760405162461bcd60e51b815260040161016190610d82565b60045462010000900460ff16156105f85760405162461bcd60e51b815260040161016190610d56565b6004805462ff00001916620100001790556040517f6c03d6628d994260daa09a2eac0acf51da9b07fe82230206e19af89743fb2fc090600090a1565b6005805461064190610dcd565b80601f016020809104026020016040519081016040528092919081815260200182805461066d90610dcd565b80156106ba5780601f1061068f576101008083540402835291602001916106ba565b820191906000526020600020905b81548152906001019060200180831161069d57829003601f168201915b505050505081565b60045460ff1661070b5760405162461bcd60e51b8152602060048201526014602482015273115cd8dc9bddc81a5cc81b9bdd08199d5b99195960621b6044820152606401610161565b600454610100900460ff161561075c5760405162461bcd60e51b8152602060048201526016602482015275119d5b991cc8185b1c9958591e481c995b19585cd95960521b6044820152606401610161565b6000546001600160a01b031633148061077f57506002546001600160a01b031633145b6107e05760405162461bcd60e51b815260206004820152602c60248201527f4f6e6c79206275796572206f7220617262697465722063616e2063616c6c207460448201526b3434b990333ab731ba34b7b760a11b6064820152608401610161565b60045462010000900460ff16156108095760405162461bcd60e51b815260040161016190610d56565b6004805461ff00191661010017905560075460035460009160649161082e9190610e1d565b6108389190610e3a565b905060008160035461084a9190610e5c565b6006546040519192506001600160a01b03169083156108fc029084906000818181858888f19350505050158015610885573d6000803e3d6000fd5b506001546040516001600160a01b039091169082156108fc029083906000818181858888f193505050501580156108c0573d6000803e3d6000fd5b50600154604080516001600160a01b039092168252602082018390527f221c08a06b07a64803b3787861a3f276212fcccb51c2e6234077a9b8cb13047a910160405180910390a15050565b6002546001600160a01b031633146109355760405162461bcd60e51b815260040161016190610d13565b60045462010000900460ff166109865760405162461bcd60e51b8152602060048201526016602482015275115cd8dc9bddc81a5cc81b9bdd08191a5cdc1d5d195960521b6044820152606401610161565b6004805462ff000019169055806109a45761099f61040b565b6109ac565b6109ac6106c2565b6040517f10cf2e6a49384e0817ef896233aca0b14f649b81e549f2e6ec5a023f4daf54c190600090a150565b6000546001600160a01b03163314806109fb57506001546001600160a01b031633145b610a175760405162461bcd60e51b815260040161016190610d82565b6004546301000000900460ff1615610a715760405162461bcd60e51b815260206004820152601e60248201527f43616e63656c6c6174696f6e20616c72656164792072657175657374656400006044820152606401610161565b60048054640100000000339081026301000000600160c01b0319909216919091176301000000179091556040519081527fc13344e4fa310ac74f4ab57252edac91ec3a4d13db49c12dd8b024091fce0b4d90602001610586565b6000546001600160a01b0316331480610aee57506001546001600160a01b031633145b610b0a5760405162461bcd60e51b815260040161016190610d82565b6004546301000000900460ff16610b635760405162461bcd60e51b815260206004820152601a60248201527f43616e63656c6c6174696f6e206e6f74207265717565737465640000000000006044820152606401610161565b60045464010000000090046001600160a01b03163303610bdf5760405162461bcd60e51b815260206004820152603160248201527f43616e63656c6c6174696f6e206d75737420626520636f6e6669726d656420626044820152707920746865206f7468657220706172747960781b6064820152608401610161565b6004805463ff00ff001916610100179055600080546003546040516001600160a01b039092169281156108fc029290818181858888f19350505050158015610c2b573d6000803e3d6000fd5b506040517f6e3be9294e58d10b9c8053cfd5e09871b67e442fe394d6b0870d336b9df984a990600090a1600054600354604080516001600160a01b03909316835260208301919091527fbada1a1bf129e41a8af5abe00997bd8a8cb1770cb0cf68314eb4b1d6c42713979101610586565b600060208083528351808285015260005b81811015610cc957858101830151858201604001528201610cad565b506000604082860101526040601f19601f8301168501019250505092915050565b600060208284031215610cfc57600080fd5b81358015158114610d0c57600080fd5b9392505050565b60208082526023908201527f4f6e6c7920617262697465722063616e2063616c6c20746869732066756e637460408201526234b7b760e91b606082015260800190565b602080825260129082015271115cd8dc9bddc81a5cc8191a5cdc1d5d195960721b604082015260600190565b6020808252602b908201527f4f6e6c79206275796572206f722073656c6c65722063616e2063616c6c20746860408201526a34b990333ab731ba34b7b760a91b606082015260800190565b600181811c90821680610de157607f821691505b602082108103610e0157634e487b7160e01b600052602260045260246000fd5b50919050565b634e487b7160e01b600052601160045260246000fd5b8082028115828204841417610e3457610e34610e07565b92915050565b600082610e5757634e487b7160e01b600052601260045260246000fd5b500490565b81810381811115610e3457610e34610e0756fea26469706673582212205d437eca42b6282708e3ea370c95cbd4231214909e332dd409cc156af63050e664736f6c63430008110033",
  "devdoc": {
    "author": "BuidlGuidl",
    "kind": "dev",
    "methods": {},
    "version": 1
  },
  "userdoc": {
    "kind": "user",
    "methods": {},
    "notice": "A smart contract that allows changing a state variable of the contract and tracking the changes It also allows the owner to withdraw the Ether in the contract",
    "version": 1
  },
  "storageLayout": {
    "storage": [
      {
        "astId": 5,
        "contract": "contracts/EscrowContract.sol:EscrowContract",
        "label": "buyer",
        "offset": 0,
        "slot": "0",
        "type": "t_address"
      },
      {
        "astId": 7,
        "contract": "contracts/EscrowContract.sol:EscrowContract",
        "label": "seller",
        "offset": 0,
        "slot": "1",
        "type": "t_address"
      },
      {
        "astId": 9,
        "contract": "contracts/EscrowContract.sol:EscrowContract",
        "label": "arbiter",
        "offset": 0,
        "slot": "2",
        "type": "t_address"
      },
      {
        "astId": 11,
        "contract": "contracts/EscrowContract.sol:EscrowContract",
        "label": "amount",
        "offset": 0,
        "slot": "3",
        "type": "t_uint256"
      },
      {
        "astId": 13,
        "contract": "contracts/EscrowContract.sol:EscrowContract",
        "label": "isFunded",
        "offset": 0,
        "slot": "4",
        "type": "t_bool"
      },
      {
        "astId": 15,
        "contract": "contracts/EscrowContract.sol:EscrowContract",
        "label": "isReleased",
        "offset": 1,
        "slot": "4",
        "type": "t_bool"
      },
      {
        "astId": 17,
        "contract": "contracts/EscrowContract.sol:EscrowContract",
        "label": "isDisputed",
        "offset": 2,
        "slot": "4",
        "type": "t_bool"
      },
      {
        "astId": 19,
        "contract": "contracts/EscrowContract.sol:EscrowContract",
        "label": "isCancellationRequested",
        "offset": 3,
        "slot": "4",
        "type": "t_bool"
      },
      {
        "astId": 21,
        "contract": "contracts/EscrowContract.sol:EscrowContract",
        "label": "cancellationRequester",
        "offset": 4,
        "slot": "4",
        "type": "t_address"
      },
      {
        "astId": 23,
        "contract": "contracts/EscrowContract.sol:EscrowContract",
        "label": "trackingNumber",
        "offset": 0,
        "slot": "5",
        "type": "t_string_storage"
      },
      {
        "astId": 25,
        "contract": "contracts/EscrowContract.sol:EscrowContract",
        "label": "platformWallet",
        "offset": 0,
        "slot": "6",
        "type": "t_address"
      },
      {
        "astId": 27,
        "contract": "contracts/EscrowContract.sol:EscrowContract",
        "label": "platformFeePercent",
        "offset": 0,
        "slot": "7",
        "type": "t_uint256"
      }
    ],
    "types": {
      "t_address": {
        "encoding": "inplace",
        "label": "address",
        "numberOfBytes": "20"
      },
      "t_bool": {
        "encoding": "inplace",
        "label": "bool",
        "numberOfBytes": "1"
      },
      "t_string_storage": {
        "encoding": "bytes",
        "label": "string",
        "numberOfBytes": "32"
      },
      "t_uint256": {
        "encoding": "inplace",
        "label": "uint256",
        "numberOfBytes": "32"
      }
    }
  }
}